S01B0000636875796E3030365F437573746F6D47616D652E73726563F8
S11300004CC0000067C0000065C0000063C0000071
S113001061C000005FC000005DC000005BC0000064
S113002059C0000057C0000055C0000053C0000074
S113003051C000005EC100004DC000004BC0000074
S113004049C0000047C0000045C0000043C0000094
S113005041C000003FC000003DC000003BC00000A4
S113006039C0000037C0000035C0000033C00000B4
S113007031C000002FC000002DC000002BC00000C4
S113008029C0000027C0000025C00000D400EE00F5
S1130090E400E900430148014D0111241FBECFEFE4
S11300A0D0E4DEBFCDBF11E0A0E0B1E0E2E9F0E1D1
S11300B000E00BBF02C007900D92A837B107D9F733
S11300C021E0A8E7B1E001C01D92AB3FB207E1F720
S11300D0ADD4DDC795CF8091F301882319F0813029
S11300E061F028C01092ED011092EB011092F8011A
S11300F01092F7018FE08093FA018091ED01813035
S113010049F48091FA01882329F08F5F8093FA01E2
S11301101092ED018091FA0185B98091EB018A304A
S113012029F481E08093F7011092EB0181E0809340
S1130130F30108951092F30108958091E201811171
S113014025C01092ED018091E7018823E1F0209110
S1130150E6018091E401281739F030E02F5F3F4F2A
S113016090E02817390779F49091F6018091EA011B
S1130170981309C082E08093EC0183E08093F1013D
S113018081E08093ED011092E20108951092E20162
S113019008958091F20190E08730910508F082C0C3
S11301A0FC01EA5BFF4FDBC6419842981092E901DB
S11301B01092E8011092F5011092F4011092E001FE
S11301C082E08093F2010895419A83E08093F201E2
S11301D00895419881E08093F2010895E091E0014F
S11301E0EC3008F04CC0E83010F58091E80130990B
S11301F00BC061E070E0AB010E2E02C0440F551F2E
S11302000A94E2F7482B0CC041E050E09A010E2E0C
S113021002C0220F331F0A94E2F7422F409548236D
S1130220842F90E09093E9018093E80121C028EFA6
S11302302E0F8091F40130990AC061E070E0AB01A7
S113024002C0440F551F2A95E2F7482B0BC041E02A
S113025050E0BA0102C0660F771F2A95E2F7462FD5
S113026040954823842F90E09093F5018093F40106
S1130270EF5FE093E00184E08093F201089586E06B
S11302808093F2010895429A85E08093F2010895E3
S1130290429881E08093F201089542984198109227
S11302A0F20108951092F20108958BE08093810089
S11302B08DE790E0909389008093880082E080939A
S11302C06F00109285001092840080910501909136
S11302D00601A0910701B09108018093DB0190937E
S11302E0DC01A093DD01B093DE018FB780688FBF7E
S11302F008951F920F920FB60F9211248F939F931C
S1130300AF93BF938091DB019091DC01A091DD015B
S1130310B091DE010197A109B1098093DB019093AB
S1130320DC01A093DD01B093DE01892B8A2B8B2B9A
S113033099F481E08093DF01809105019091060199
S1130340A0910701B09108018093DB019093DC0137
S1130350A093DD01B093DE01BF91AF919F918F9186
S11303600F900FBE0F901F901895181619069CF445
S113037040E050E077E063E00BC000002150310919
S113038021153105D1F74F5F5F4F4817590719F011
S1130390272F362FF2CF089510988BB9119A0000A9
S11303A0119882E090E0E1CF089581E0F5CF0895BF
S11303B0813118F48158F0CF08958155EDCF089517
S11303C084E690E0D2DF88E3E7DF86E0E5DF8FE0D4
S11303D0E3DF81E0E1DF8AE090E0C7CF0895109A7F
S11303E08BB9119A0000119881E090E0BECF089576
S11303F00F931F93CF93DF93182FEB01D6DF8881E0
S1130400882359F001E0010F812FD2DF8991E7DFC2
S11304108881882311F0102FF5CFDF91CF911F91A0
S11304200F9108958091E101811109C06BE171E0A0
S113043081E0DEDF12B815B81092E1010895109240
S1130440E10108958091F001811140C08091E8019B
S113045086FF1CC080910401833038F4282F30E0DB
S1130460205F3F4F2431310574F1A2DF80E2B7DF12
S113047080910401805F9CDF80E2B1DF80E098DF3F
S1130480809104018150809304011DC08823DCF411
S1130490809104018F3038F0282F30E0205F3F4FE7
S11304A02E31310584F484DF80E299DF80910401E8
S11304B0805F7EDF80E293DF80E07ADF8091040159
S11304C08F5F809304011092F00108951092F0015F
S11304D008950F931F93CF93DF93062F172F883020
S11304E060F4880F880F880F805C56DFC02FD12FEF
S11304F018E0899174DF1150E1F7DF91CF911F91DA
S11305000F9108958091E501813069F138F08230CE
S113051009F467C0833009F4A5C0CCC08091E80118
S113052085FF11C067E671E080E0D3DF80910401AC
S11305303FDF80E054DF80E03BDF81E08093E30134
S11305408093E50108956FE671E080E0C2DF809159
S113055004012EDF80E043DF80E02ADF1092E30114
S11305601092E50108958091E80185FF17C06FE6B8
S113057071E080E0AEDF809104011ADF80E22FDFBA
S113058080910401805F14DF80E029DF80E010DFC8
S113059082E08093E3018093E501089584FF10C015
S11305A06FE671E080E095DF8091040101DF80E077
S11305B016DF80E0FDDE1092E3011092E50108955C
S11305C067E671E080E085DF80910401F1DE80E080
S11305D006DF80E0EDDE81E08093E3018093E501B6
S11305E008958091E80185FF12C067E671E080E01C
S11305F070DF80910401805FDBDE80E0F0DE80E06C
S1130600D7DE83E08093E3018093E501089584FFBE
S113061017C067E671E080E05CDF80910401805FD1
S1130620C7DE80E2DCDE80910401C2DE80E0D7DE3A
S113063080E0BEDE81E08093E3018093E5010895CC
S11306406FE671E080E045DF80910401805FB0DEF9
S113065080E0C5DE80E0ACDE82E08093E30180933D
S1130660E50108958091E80184FF12C06FE671E00E
S113067080E02FDF80910401805F9ADE80E0AFDEAE
S113068080E096DE82E08093E3018093E5010895A3
S113069067E671E080E01DDF80910401805F88DE01
S11306A080E09DDE80E084DE83E08093E30180933C
S11306B0E50108951092E50108958091EC018130DF
S11306C009F447C020F0823009F461C06AC096D4AE
S11306D083709078992324F401978C6F9F6F01960F
S11306E08093EA0181110BC06FE571E082E0F1DED5
S11306F08FE08093E4015CDE82E071DE24C081300F
S113070059F467E571E082E0E4DE8FE08093E40170
S11307104FDE82E064DE17C0823059F46FE571E089
S113072082E0D7DE8FE18093E40142DE82E057DE8F
S11307300AC067E571E082E0CCDE8FE18093E401DA
S113074037DE82E04CDE80E033DE81E08093EC0132
S113075008958091E4019FEF980F9093E40128DEBF
S113076080E23DDE8091E40123DE82E038DE80E039
S11307701FDE8091E401882311F0813121F482E0AD
S11307808093EC01089581E08093EC0108958091B9
S1130790E4010EDE80E223DE80E00ADE1092EC014A
S11307A008951092EC0108958091F101823009F4CA
S11307B095C030F4882369F0813009F46EC0D2C04A
S11307C0843009F4C8C008F4AAC0853009F4CCC048
S11307D0C9C01092E7018091FA01811103C095E02C
S11307E09093F1019091E80190FF54C091E09093AF
S11307F0E701882319F081508093FA018091040164
S11308008F5F8093E6018091E3018230E8F48111E7
S113081007C06FE371E081E05CDE1092F60108C06E
S1130820813031F467E371E054DE81E08093F601B6
S11308308091E6018F5FBCDD81E0D1DD80E0B8DD31
S113084081E08093F1010895843008F08DC08230F6
S113085041F46FE371E081E03CDE82E08093F601D5
S113086009C0833039F467E371E081E032DE83E06C
S11308708093F6018091E60190E1980F9093E60150
S11308808F5E96DD81E0ABDD80E092DD82E08093D7
S1130890F10108951092F10108958091FA018111F6
S11308A003C085E08093F1018091E601803190F4EA
S11308B091E0980F9093E6017BDD80E290DD8091DA
S11308C0E60176DD81E08BDD80E072DD81E08093FE
S11308D0F101089583E08093F10108958091FA0174
S11308E0811103C085E08093F1018091E60180329B
S11308F090F491E0980F9093E6015ADD80E26FDD69
S11309008091E60155DD81E06ADD80E051DD82E021
S11309108093F101089583E08093F101089580911B
S1130920FA01811103C085E08093F10180E140DD8B
S113093080E255DD80E23CDD80E251DD8091E6011C
S113094037DD80E24CDD80E033DD1092E70184E0A6
S11309508093F10108958091E80180FD05C0109213
S1130960F10108951092F10108958091F901813007
S1130970B9F038F0823009F446C0833009F44BC032
S113098048C06FE471E083E0A4DD67E471E084E0D3
S1130990A0DD83E08093EF0181E08093F901089565
S11309A081E006DD83E01BDD81E102DD84E017DD0B
S11309B080E0FEDC8091EF01880F880F82B980917E
S11309C0EF019FEF980F923060F49091F701992313
S11309D029F08F5F8093EF011092F70181E08093FB
S11309E0F9018091E4018F7E813029F48091EF0137
S11309F081508093EF018091EF0181110CC082E05E
S1130A008093F9010895D1DC12B883E08093F90151
S1130A1008951092F90108952FE02093FA0127E038
S1130A202093EF012FEFFC0120830895CF93DF93F0
S1130A30CDB7DEB762970FB6F894DEBF0FBECDBF59
S1130A408FEF81B912B88AB91BB89EEF97B991E0BC
S1130A5098B984B915B812E300E0F12CE12C59E1FE
S1130A6040E030E020E0652F742F832F922F212F58
S1130A70302F4F2D5E2D51D26115710581059105E1
S1130A8049F0512F402F3F2D2E2D162F072FF82ED2
S1130A90E92EE9CF0F2EF9E1AF2EF02DB12CC12CA8
S1130AA0D12C612F702F8F2D9E2D2A2D3B2D4C2D57
S1130AB05D2D33D2611571058105910549F01A2D1B
S1130AC00B2DFC2CED2CA62EB72EC82ED92EE9CF3B
S1130AD019E100E0B12CA12C51E040E030E020E02D
S1130AE0652F742F832F922F212F302F4B2D5A2DAA
S1130AF014D2611571058105910549F0512F402FDC
S1130B003B2D2A2D162F072FB82EA92EE9CF0F2EF5
S1130B10F9E1FF2EF02DE12CD12CC12C612F702F87
S1130B208B2D9A2D2F2D3E2D4D2D5C2DF6D161153B
S1130B3071058105910549F01F2D0E2DBD2CAC2C9E
S1130B40F62EE72ED82EC92EE9CF0F2EF9E16F2EFF
S1130B50F02D712C00E010E06F2D7E2D8D2D9C2D3D
S1130B60262D372D402F512FD8D1611571058105C0
S1130B70910549F0F62CE72CD02EC12E662E772E47
S1130B80082F192FE9CF69E170E080E090E0262D6D
S1130B90372D402F512FC1D169017A0162E370E0F2
S1130BA080E090E0262D372D402F512FB6D119012A
S1130BB02A0161E070E080E090E0262D372D402F7F
S1130BC0512FABD149015A0164E670E080E090E016
S1130BD0262D372D402F512FA0D182E1E9E0F1E0FD
S1130BE0DE01119601900D928A95E1F76FEF609303
S1130BF0D001C092D101D092D201E092D301F092FF
S1130C00D401C092D501D092D601E092D701F092DE
S1130C10D80182E892E09093DA018093D90160933D
S1130C20C501C092C601D092C701E092C801F092FA
S1130C30C901C092CA01D092CB01E092CC01F092DA
S1130C40CD0182E292E09093CF018093CE01609334
S1130C50BA01C092BB01D092BC01E092BD01F092F6
S1130C60BE01C092BF01D092C001E092C101F092D6
S1130C70C20184ED93E09093C4018093C301609317
S1130C80AF012092B0013092B1014092B201509272
S1130C90B3012092B4013092B5014092B601509252
S1130CA0B7018DE593E09093B9018093B801609307
S1130CB0A4018092A5019092A601A092A701B092EE
S1130CC0A8018092A9019092AA01A092AB01B092CE
S1130CD0AC0189EC90E09093AE018093AD016093F8
S1130CE09901C0929A01D0929B01E0929C01F092EA
S1130CF09D01C0929E01D0929F01E092A001F092CA
S1130D00A1018DE990E09093A3018093A2016093E7
S1130D108E01C0928F01D0929001E0929101F092E5
S1130D209201C0929301D0929401E0929501F092C5
S1130D3096018BE690E090939801809397016093DD
S1130D40830120938401309385014093860150935D
S1130D508701209388013093890140938A0150933D
S1130D608B0185EB94E090938D0180938C016093CB
S1130D70780188EE93E0A0E0B0E08093790190934D
S1130D807A01A0937B01B0937C0180937D019093C1
S1130D907E01A0937F01B093800182E192E0909361
S1130DA08201809381011092EE010ADBFEDA7DDA82
S1130DB060920501709206010093070110930801E7
S1130DC06092DB017092DC010093DD011093DE017F
S1130DD08FE08093FA0187E08093EF0100E010E058
S1130DE0A12CB12C0F2EF8EEEF2EF1E0FF2EF02DFA
S1130DF087C0F801EE0FFF1F81E090E08C0F9D1F6C
S1130E00E80FF91FC080D180D60115964D915D91F0
S1130E106D917C91189711968D919D910D90BC9137
S1130E20A02D481759076A077B0709F050C0809125
S1130E30FA01882321F08091EF0181112AC0043046
S1130E40110521F00830110509F041C0F601808137
S1130E500184F285E02D992787FD90950995D601A7
S1130E608C93F801EE0FFF1F81E090E08C0F9D1F23
S1130E70E80FF91F0190F081E02D15821682178288
S1130E801086D7018C9183FF22C0CE010196C4DD68
S1130E901EC00830110558F4F60180810184F285E2
S1130EA0E02D992787FD90950995D6018C93F8013B
S1130EB0EE0FFF1F81E090E08C0F9D1FE80FF91FDC
S1130EC00190F081E02D1582168217821086F801B8
S1130ED0EE0FFF1FA1E0B0E0AC0FBD1FEA0FFB1F38
S1130EE00190F081E02D85819681A781B0850196DE
S1130EF0A11DB11D85839683A783B0870F5F1F4F04
S1130F000930110508F475CF8091DF018823E1F3DE
S1130F101092DF010A2D1B2DF3CFA1E21A2EAA1B7A
S1130F20BB1BFD010DC0AA1FBB1FEE1FFF1FA21795
S1130F30B307E407F50720F0A21BB30BE40BF50B92
S1130F40661F771F881F991F1A9469F7609570951B
S1130F50809590959B01AC01BD01CF010895EE0FE2
S1130F60FF1F0590F491E02D09948F929F92AF9208
S1130F70BF92CF92DF92EF92FF92CF93DF93EC0177
S1130F80688179818A819B8161157105810591054B
S1130F9021F464E279ED8BE597E02DE133EF41E054
S1130FA050E03AD049015A019B01AC01A7EAB1E4EF
S1130FB04FD06B017C01ACEEB4EFA501940154D089
S1130FC0C60ED71EE81EF91EF7FE06C081E0C81A39
S1130FD0D108E10880E8F80AC882D982EA82FB8253
S1130FE0C6019F77DF91CF91FF90EF90DF90CF9074
S1130FF0BF90AF909F908F900895B7CF80E091E01D
S1131000B4CFA0E0B0E08093000190930101A093DD
S11310100201B09303010895052E97FB16F4009482
S11310200FD057FD05D079DF07FC02D046F408C085
S113103050954095309521953F4F4F4F5F4F089500
S113104090958095709561957F4F8F4F9F4F089530
S11310500FD0A59F900DB49F900DA49F800D911D5E
S113106011240895B7FFF4CFF3DF821B930B089587
S1131070A29FB001B39FC001A39F700D811D1124D5
S1131080911DB29F700D811D1124911D0895F89436
S1051090FFCF8C
S1131092010000000201000000D001C501BA01AF45
S11310A201A40199018E018301780147414D452034
S11310B24F56455220202020202020507265737301
S11310C22073746172740000000000001F1F00008E
S11310D21F1F00000000000F1F17060E0E0C181829
S11310E20C0E0E06171F0F000000000B1C1C0B0B2E
S11310F21C1C0B00000000000000001C0F0F1C1C35
S10B11020F0F1C0000000000A7
S9030000FC
